{
  "contractName": "Tokens",
  "abi": [
    {
      "inputs": [
        {
          "name": "_maxDepth",
          "type": "uint256"
        }
      ],
      "payable": false,
      "stateMutability": "nonpayable",
      "type": "constructor",
      "signature": "constructor"
    },
    {
      "constant": false,
      "inputs": [
        {
          "name": "_op",
          "type": "string"
        }
      ],
      "name": "createOp",
      "outputs": [],
      "payable": false,
      "stateMutability": "nonpayable",
      "type": "function",
      "signature": "0x8dcc8c5d"
    },
    {
      "constant": false,
      "inputs": [
        {
          "name": "_delegatee",
          "type": "address"
        },
        {
          "name": "_op",
          "type": "string"
        }
      ],
      "name": "delegateTokens",
      "outputs": [],
      "payable": false,
      "stateMutability": "nonpayable",
      "type": "function",
      "signature": "0x246e615e"
    },
    {
      "constant": false,
      "inputs": [
        {
          "name": "_target",
          "type": "address"
        }
      ],
      "name": "revokeTokens",
      "outputs": [],
      "payable": false,
      "stateMutability": "nonpayable",
      "type": "function",
      "signature": "0xabe983f2"
    },
    {
      "constant": true,
      "inputs": [
        {
          "name": "_subject",
          "type": "address"
        }
      ],
      "name": "getIcap",
      "outputs": [
        {
          "components": [
            {
              "name": "isValid",
              "type": "bool"
            },
            {
              "name": "op",
              "type": "string[]"
            }
          ],
          "name": "",
          "type": "tuple"
        }
      ],
      "payable": false,
      "stateMutability": "view",
      "type": "function",
      "signature": "0x0c56d955"
    },
    {
      "constant": true,
      "inputs": [
        {
          "name": "_subject",
          "type": "address"
        }
      ],
      "name": "getIDC",
      "outputs": [
        {
          "components": [
            {
              "name": "vidP",
              "type": "address"
            },
            {
              "name": "vidC",
              "type": "address[]"
            },
            {
              "name": "depth",
              "type": "uint256"
            }
          ],
          "name": "",
          "type": "tuple"
        }
      ],
      "payable": false,
      "stateMutability": "view",
      "type": "function",
      "signature": "0x33b91568"
    },
    {
      "constant": true,
      "inputs": [
        {
          "name": "_origin",
          "type": "string"
        },
        {
          "name": "_target",
          "type": "string"
        }
      ],
      "name": "isSameString",
      "outputs": [
        {
          "name": "",
          "type": "bool"
        }
      ],
      "payable": false,
      "stateMutability": "pure",
      "type": "function",
      "signature": "0x3668bbcf"
    }
  ],
  "bytecode": "0x60806040523480156200001157600080fd5b50604051602080620021ba833981018060405262000033919081019062000324565b336000806101000a81548173ffffffffffffffffffffffffffffffffffffffff021916908373ffffffffffffffffffffffffffffffffffffffff16021790555060018060003373ffffffffffffffffffffffffffffffffffffffff1673ffffffffffffffffffffffffffffffffffffffff16815260200190815260200160002060000160006101000a81548160ff0219169083151502179055506000600260003373ffffffffffffffffffffffffffffffffffffffff1673ffffffffffffffffffffffffffffffffffffffff1681526020019081526020016000206002018190555080600360003373ffffffffffffffffffffffffffffffffffffffff1673ffffffffffffffffffffffffffffffffffffffff16815260200190815260200160002060000181905550600260003373ffffffffffffffffffffffffffffffffffffffff1673ffffffffffffffffffffffffffffffffffffffff168152602001908152602001600020600360003373ffffffffffffffffffffffffffffffffffffffff1673ffffffffffffffffffffffffffffffffffffffff1681526020019081526020016000206001016000820160009054906101000a900473ffffffffffffffffffffffffffffffffffffffff168160000160006101000a81548173ffffffffffffffffffffffffffffffffffffffff021916908373ffffffffffffffffffffffffffffffffffffffff16021790555060018201816001019080546200025c92919062000271565b5060028201548160020155905050506200035a565b828054828255906000526020600020908101928215620002b55760005260206000209182015b82811115620002b457825482559160010191906001019062000297565b5b509050620002c49190620002c8565b5090565b6200030b91905b808211156200030757600081816101000a81549073ffffffffffffffffffffffffffffffffffffffff021916905550600101620002cf565b5090565b90565b60006200031c825162000350565b905092915050565b6000602082840312156200033757600080fd5b600062000347848285016200030e565b91505092915050565b6000819050919050565b611e50806200036a6000396000f3fe608060405260043610610078576000357c0100000000000000000000000000000000000000000000000000000000900463ffffffff1680630c56d9551461007d578063246e615e146100ba57806333b91568146100e35780633668bbcf146101205780638dcc8c5d1461015d578063abe983f214610186575b600080fd5b34801561008957600080fd5b506100a4600480360361009f919081019061168b565b6101af565b6040516100b19190611c99565b60405180910390f35b3480156100c657600080fd5b506100e160048036036100dc91908101906116b4565b61030c565b005b3480156100ef57600080fd5b5061010a6004803603610105919081019061168b565b610a48565b6040516101179190611c77565b60405180910390f35b34801561012c57600080fd5b5061014760048036036101429190810190611749565b610b90565b6040516101549190611b9c565b60405180910390f35b34801561016957600080fd5b50610184600480360361017f9190810190611708565b610c83565b005b34801561019257600080fd5b506101ad60048036036101a8919081019061168b565b610f3a565b005b6101b7611472565b600160008373ffffffffffffffffffffffffffffffffffffffff1673ffffffffffffffffffffffffffffffffffffffff1681526020019081526020016000206040805190810160405290816000820160009054906101000a900460ff1615151515815260200160018201805480602002602001604051908101604052809291908181526020016000905b828210156102fd578382906000526020600020018054600181600116156101000203166002900480601f0160208091040260200160405190810160405280929190818152602001828054600181600116156101000203166002900480156102e95780601f106102be576101008083540402835291602001916102e9565b820191906000526020600020905b8154815290600101906020018083116102cc57829003601f168201915b505050505081526020019060010190610241565b50505050815250509050919050565b3373ffffffffffffffffffffffffffffffffffffffff16600260008473ffffffffffffffffffffffffffffffffffffffff1673ffffffffffffffffffffffffffffffffffffffff16815260200190815260200160002060000160009054906101000a900473ffffffffffffffffffffffffffffffffffffffff1673ffffffffffffffffffffffffffffffffffffffff1614806104365750600073ffffffffffffffffffffffffffffffffffffffff16600260008473ffffffffffffffffffffffffffffffffffffffff1673ffffffffffffffffffffffffffffffffffffffff16815260200190815260200160002060000160009054906101000a900473ffffffffffffffffffffffffffffffffffffffff1673ffffffffffffffffffffffffffffffffffffffff16145b1515610477576040517f08c379a000000000000000000000000000000000000000000000000000000000815260040161046e90611bb7565b60405180910390fd5b600360008060009054906101000a900473ffffffffffffffffffffffffffffffffffffffff1673ffffffffffffffffffffffffffffffffffffffff1673ffffffffffffffffffffffffffffffffffffffff16815260200190815260200160002060000154600260003373ffffffffffffffffffffffffffffffffffffffff1673ffffffffffffffffffffffffffffffffffffffff16815260200190815260200160002060020154101515610560576040517f08c379a000000000000000000000000000000000000000000000000000000000815260040161055790611c17565b60405180910390fd5b600080905060008090505b600160003373ffffffffffffffffffffffffffffffffffffffff1673ffffffffffffffffffffffffffffffffffffffff168152602001908152602001600020600101805490508110156106d557600115156106b7600160003373ffffffffffffffffffffffffffffffffffffffff1673ffffffffffffffffffffffffffffffffffffffff1681526020019081526020016000206001018381548110151561060e57fe5b906000526020600020018054600181600116156101000203166002900480601f0160208091040260200160405190810160405280929190818152602001828054600181600116156101000203166002900480156106ac5780601f10610681576101008083540402835291602001916106ac565b820191906000526020600020905b81548152906001019060200180831161068f57829003601f168201915b505050505085610b90565b151514156106c857600191506106d5565b808060010191505061056b565b506001151581151514151561071f576040517f08c379a000000000000000000000000000000000000000000000000000000000815260040161071690611bd7565b60405180910390fd5b60018060008573ffffffffffffffffffffffffffffffffffffffff1673ffffffffffffffffffffffffffffffffffffffff16815260200190815260200160002060000160006101000a81548160ff021916908315150217905550600160008473ffffffffffffffffffffffffffffffffffffffff1673ffffffffffffffffffffffffffffffffffffffff1681526020019081526020016000206001018290806001815401808255809150509060018203906000526020600020016000909192909190915090805190602001906107f692919061148e565b50506001600260003373ffffffffffffffffffffffffffffffffffffffff1673ffffffffffffffffffffffffffffffffffffffff1681526020019081526020016000206002015401600260008573ffffffffffffffffffffffffffffffffffffffff1673ffffffffffffffffffffffffffffffffffffffff16815260200190815260200160002060020181905550600073ffffffffffffffffffffffffffffffffffffffff16600260008573ffffffffffffffffffffffffffffffffffffffff1673ffffffffffffffffffffffffffffffffffffffff16815260200190815260200160002060000160009054906101000a900473ffffffffffffffffffffffffffffffffffffffff1673ffffffffffffffffffffffffffffffffffffffff161415610a435733600260008573ffffffffffffffffffffffffffffffffffffffff1673ffffffffffffffffffffffffffffffffffffffff16815260200190815260200160002060000160006101000a81548173ffffffffffffffffffffffffffffffffffffffff021916908373ffffffffffffffffffffffffffffffffffffffff160217905550600260003373ffffffffffffffffffffffffffffffffffffffff1673ffffffffffffffffffffffffffffffffffffffff1681526020019081526020016000206001018390806001815401808255809150509060018203906000526020600020016000909192909190916101000a81548173ffffffffffffffffffffffffffffffffffffffff021916908373ffffffffffffffffffffffffffffffffffffffff160217905550505b505050565b610a5061150e565b600260008373ffffffffffffffffffffffffffffffffffffffff1673ffffffffffffffffffffffffffffffffffffffff168152602001908152602001600020606060405190810160405290816000820160009054906101000a900473ffffffffffffffffffffffffffffffffffffffff1673ffffffffffffffffffffffffffffffffffffffff1673ffffffffffffffffffffffffffffffffffffffff16815260200160018201805480602002602001604051908101604052809291908181526020018280548015610b7657602002820191906000526020600020905b8160009054906101000a900473ffffffffffffffffffffffffffffffffffffffff1673ffffffffffffffffffffffffffffffffffffffff1681526020019060010190808311610b2c575b505050505081526020016002820154815250509050919050565b6000816040516020018082805190602001908083835b602083101515610bcb5780518252602082019150602081019050602083039250610ba6565b6001836020036101000a03801982511681845116808217855250505050505090500191505060405160208183030381529060405280519060200120836040516020018082805190602001908083835b602083101515610c3f5780518252602082019150602081019050602083039250610c1a565b6001836020036101000a0380198251168184511680821785525050505050509050019150506040516020818303038152906040528051906020012014905092915050565b6000809054906101000a900473ffffffffffffffffffffffffffffffffffffffff1673ffffffffffffffffffffffffffffffffffffffff163373ffffffffffffffffffffffffffffffffffffffff16141515610d14576040517f08c379a0000000000000000000000000000000000000000000000000000000008152600401610d0b90611bf7565b60405180910390fd5b60008090505b600160003373ffffffffffffffffffffffffffffffffffffffff1673ffffffffffffffffffffffffffffffffffffffff16815260200190815260200160002060010180549050811015610eb75760001515610e66600160003373ffffffffffffffffffffffffffffffffffffffff1673ffffffffffffffffffffffffffffffffffffffff16815260200190815260200160002060010183815481101515610dbd57fe5b906000526020600020018054600181600116156101000203166002900480601f016020809104026020016040519081016040528092919081815260200182805460018160011615610100020316600290048015610e5b5780601f10610e3057610100808354040283529160200191610e5b565b820191906000526020600020905b815481529060010190602001808311610e3e57829003601f168201915b505050505084610b90565b1515141515610eaa576040517f08c379a0000000000000000000000000000000000000000000000000000000008152600401610ea190611c57565b60405180910390fd5b8080600101915050610d1a565b50600160003373ffffffffffffffffffffffffffffffffffffffff1673ffffffffffffffffffffffffffffffffffffffff168152602001908152602001600020600101819080600181540180825580915050906001820390600052602060002001600090919290919091509080519060200190610f3592919061148e565b505050565b60011515610f48338361118b565b1515141515610f8c576040517f08c379a0000000000000000000000000000000000000000000000000000000008152600401610f8390611c37565b60405180910390fd5b6000600260008373ffffffffffffffffffffffffffffffffffffffff1673ffffffffffffffffffffffffffffffffffffffff16815260200190815260200160002060000160009054906101000a900473ffffffffffffffffffffffffffffffffffffffff16905060008090505b600260008373ffffffffffffffffffffffffffffffffffffffff1673ffffffffffffffffffffffffffffffffffffffff1681526020019081526020016000206001018054905081101561117d578273ffffffffffffffffffffffffffffffffffffffff16600260008473ffffffffffffffffffffffffffffffffffffffff1673ffffffffffffffffffffffffffffffffffffffff168152602001908152602001600020600101828154811015156110ac57fe5b9060005260206000200160009054906101000a900473ffffffffffffffffffffffffffffffffffffffff1673ffffffffffffffffffffffffffffffffffffffff16141561117057600260008373ffffffffffffffffffffffffffffffffffffffff1673ffffffffffffffffffffffffffffffffffffffff1681526020019081526020016000206001018181548110151561114257fe5b9060005260206000200160006101000a81549073ffffffffffffffffffffffffffffffffffffffff02191690555b8080600101915050610ff9565b50611187826112a5565b5050565b60008060009050600083905060008090505b6001600260008773ffffffffffffffffffffffffffffffffffffffff1673ffffffffffffffffffffffffffffffffffffffff1681526020019081526020016000206002015401811015611299578573ffffffffffffffffffffffffffffffffffffffff168273ffffffffffffffffffffffffffffffffffffffff1614156112275760019250611299565b600260008373ffffffffffffffffffffffffffffffffffffffff1673ffffffffffffffffffffffffffffffffffffffff16815260200190815260200160002060000160009054906101000a900473ffffffffffffffffffffffffffffffffffffffff169150808060010191505061119d565b50819250505092915050565b60008090505b600260008373ffffffffffffffffffffffffffffffffffffffff1673ffffffffffffffffffffffffffffffffffffffff168152602001908152602001600020600101805490508110156113875761137a600260008473ffffffffffffffffffffffffffffffffffffffff1673ffffffffffffffffffffffffffffffffffffffff1681526020019081526020016000206001018281548110151561134a57fe5b9060005260206000200160009054906101000a900473ffffffffffffffffffffffffffffffffffffffff166112a5565b80806001019150506112ab565b50600160008273ffffffffffffffffffffffffffffffffffffffff1673ffffffffffffffffffffffffffffffffffffffff168152602001908152602001600020600080820160006101000a81549060ff02191690556001820160006113ec9190611546565b5050600260008273ffffffffffffffffffffffffffffffffffffffff1673ffffffffffffffffffffffffffffffffffffffff168152602001908152602001600020600080820160006101000a81549073ffffffffffffffffffffffffffffffffffffffff02191690556001820160006114659190611567565b6002820160009055505050565b6040805190810160405280600015158152602001606081525090565b828054600181600116156101000203166002900490600052602060002090601f016020900481019282601f106114cf57805160ff19168380011785556114fd565b828001600101855582156114fd579182015b828111156114fc5782518255916020019190600101906114e1565b5b50905061150a9190611588565b5090565b606060405190810160405280600073ffffffffffffffffffffffffffffffffffffffff16815260200160608152602001600081525090565b508054600082559060005260206000209081019061156491906115ad565b50565b50805460008255906000526020600020908101906115859190611588565b50565b6115aa91905b808211156115a657600081600090555060010161158e565b5090565b90565b6115d691905b808211156115d257600081816115c991906115d9565b506001016115b3565b5090565b90565b50805460018160011615610100020316600290046000825580601f106115ff575061161e565b601f01602090049060005260206000209081019061161d9190611588565b5b50565b600061162d8235611db1565b905092915050565b600082601f830112151561164857600080fd5b813561165b61165682611ce8565b611cbb565b9150808252602083016020830185838301111561167757600080fd5b611682838284611dc3565b50505092915050565b60006020828403121561169d57600080fd5b60006116ab84828501611621565b91505092915050565b600080604083850312156116c757600080fd5b60006116d585828601611621565b925050602083013567ffffffffffffffff8111156116f257600080fd5b6116fe85828601611635565b9150509250929050565b60006020828403121561171a57600080fd5b600082013567ffffffffffffffff81111561173457600080fd5b61174084828501611635565b91505092915050565b6000806040838503121561175c57600080fd5b600083013567ffffffffffffffff81111561177657600080fd5b61178285828601611635565b925050602083013567ffffffffffffffff81111561179f57600080fd5b6117ab85828601611635565b9150509250929050565b6117be81611d69565b82525050565b60006117cf82611d2e565b8084526020840193506117e183611d14565b60005b82811015611813576117f78683516117b5565b61180082611d4f565b91506020860195506001810190506117e4565b50849250505092915050565b600061182a82611d39565b8084526020840193508360208202850161184385611d21565b60005b8481101561187c57838303885261185e83835161189c565b925061186982611d5c565b9150602088019750600181019050611846565b508196508694505050505092915050565b61189681611d7b565b82525050565b60006118a782611d44565b8084526118bb816020860160208601611dd2565b6118c481611e05565b602085010191505092915050565b6000603c82527f2764656c65676174654f7027207761732063616c6c6564206279206e6f74207060208301527f6172656e74206f66207370656369666965642064656c656761746565000000006040830152606082019050919050565b6000602f82527f5468652064656c656761746f7220646f6e74206861766520746865207370656360208301527f6966696564206f7065726174696f6e00000000000000000000000000000000006040830152606082019050919050565b6000602282527f276372656174654f7027207761732063616c6c6564206279206e6f74206f776e60208301527f65720000000000000000000000000000000000000000000000000000000000006040830152606082019050919050565b6000602e82527f546865206465707468206f662064656c65676174656420746f6b656e7320657860208301527f6365656473206d617844657074680000000000000000000000000000000000006040830152606082019050919050565b6000602c82527f6d73672e73656e646572206973206e6f7420616e636573746f72206f6620746160208301527f72676574206164647265737300000000000000000000000000000000000000006040830152606082019050919050565b6000602b82527f54686520737065636966696564206f7065726174696f6e206e616d6520616c7260208301527f65616479206578697374730000000000000000000000000000000000000000006040830152606082019050919050565b6000606083016000830151611b1860008601826117b5565b5060208301518482036020860152611b3082826117c4565b9150506040830151611b456040860182611b8d565b508091505092915050565b6000604083016000830151611b68600086018261188d565b5060208301518482036020860152611b80828261181f565b9150508091505092915050565b611b9681611da7565b82525050565b6000602082019050611bb1600083018461188d565b92915050565b60006020820190508181036000830152611bd0816118d2565b9050919050565b60006020820190508181036000830152611bf08161192f565b9050919050565b60006020820190508181036000830152611c108161198c565b9050919050565b60006020820190508181036000830152611c30816119e9565b9050919050565b60006020820190508181036000830152611c5081611a46565b9050919050565b60006020820190508181036000830152611c7081611aa3565b9050919050565b60006020820190508181036000830152611c918184611b00565b905092915050565b60006020820190508181036000830152611cb38184611b50565b905092915050565b6000604051905081810181811067ffffffffffffffff82111715611cde57600080fd5b8060405250919050565b600067ffffffffffffffff821115611cff57600080fd5b601f19601f8301169050602081019050919050565b6000602082019050919050565b6000602082019050919050565b600081519050919050565b600081519050919050565b600081519050919050565b6000602082019050919050565b6000602082019050919050565b6000611d7482611d87565b9050919050565b60008115159050919050565b600073ffffffffffffffffffffffffffffffffffffffff82169050919050565b6000819050919050565b6000611dbc82611d87565b9050919050565b82818337600083830152505050565b60005b83811015611df0578082015181840152602081019050611dd5565b83811115611dff576000848401525b50505050565b6000601f19601f830116905091905056fea265627a7a72305820dc343b917be68839445e6f72fd662753584db4cdee078a9085cd676b417e59ff6c6578706572696d656e74616cf50037",
  "source": "pragma solidity ^0.5.0;\npragma experimental ABIEncoderV2;\n\ncontract Tokens {\n\n  // global variables\n  address iotOwner;\n  // string[] functions = [\"delegateTokens\", \"revokeTokens\"];\n\n  struct Right{\n    bool        isValid;\n    string[]    op;\n    // address   vidO;\n  }\n\n  struct Node{\n    address     vidP;\n    address[]   vidC;\n    uint        depth;\n    // string[]    dar;\n  }\n\n  struct Tree{\n    uint        maxDepth;\n    Node        rootNode;\n  }\n\n  mapping(address => Right) Icap;\n  mapping(address => Node)  IDC;\n  mapping(address => Tree)  IDT;\n\n  constructor (uint _maxDepth) public{\n    iotOwner = msg.sender;\n\n    Icap[msg.sender].isValid = true;\n    // Icap[msg.sender].op = [];\n\n    IDC[msg.sender].depth = 0;\n    // IDC[msg.sender].dar = functions;\n\n    IDT[msg.sender].maxDepth = _maxDepth;\n    IDT[msg.sender].rootNode = IDC[msg.sender];\n  }\n\n\n  function createOp(string memory _op) public {\n    require(\n      msg.sender == iotOwner,\n      \"'createOp' was called by not owner\"\n    );\n\n    // check if the owner already exists the specified operation or not\n    for(uint i = 0; i < Icap[msg.sender].op.length; i++){\n      require(\n        isSameString(Icap[msg.sender].op[i], _op) == false,\n        \"The specified operation name already exists\"\n      );\n    }\n\n    // add new operation to owner\n    Icap[msg.sender].op.push(_op);\n  }\n\n  function delegateTokens(address _delegatee, string memory _op) public{\n    // check if the msg.sender is parent of the specified elegatee\n    require(\n      IDC[_delegatee].vidP == msg.sender ||\n      IDC[_delegatee].vidP == address(0),\n      \"'delegateOp' was called by not parent of specified delegatee\"\n    );\n\n    // ckeck if the delegatee's depth is within maxDepth\n    require(\n      IDC[msg.sender].depth < IDT[iotOwner].maxDepth,\n      \"The depth of delegated tokens exceeds maxDepth\"\n    );\n\n    // check if the msg.sender has the specified operation or not\n    bool cheker = false;\n    for(uint i = 0; i < Icap[msg.sender].op.length; i++){\n      if(isSameString(Icap[msg.sender].op[i], _op) == true){\n        cheker = true;\n        break;\n      }\n    }\n    require(\n      cheker == true,\n      \"The delegator dont have the specified operation\"\n    );\n\n    //delegate OP and create Tokens\n    Icap[_delegatee].isValid = true;\n    Icap[_delegatee].op.push(_op);\n\n    IDC[_delegatee].depth = IDC[msg.sender].depth + 1;\n\n    if(IDC[_delegatee].vidP == 0x0000000000000000000000000000000000000000){\n      IDC[_delegatee].vidP = msg.sender;\n      IDC[msg.sender].vidC.push(_delegatee);\n    }\n  }\n\n  function revokeTokens(address _target) public {\n    // check if msg.sender is ancestor of target address or not\n    require(\n      checkParent(msg.sender, _target) == true,\n      \"msg.sender is not ancestor of target address\"\n    );\n\n    // children\n    address parent = IDC[_target].vidP;\n    for(uint i = 0; i < IDC[parent].vidC.length; i++){\n      if(IDC[parent].vidC[i] == _target){\n        delete IDC[parent].vidC[i];\n      }\n    }\n\n    childrenRevocation(_target);\n  }\n\n\n  function getIcap(address _subject) public view returns(Right memory){\n    return(Icap[_subject]);\n  }\n  function getIDC(address _subject) public view returns(Node memory){\n    return(IDC[_subject]);\n  }\n\n  function isSameString(string memory _origin, string memory _target) public pure returns (bool) {\n     return keccak256(abi.encodePacked(_origin)) == keccak256(abi.encodePacked(_target));\n  }\n\n  function checkParent(address _parent, address _child) private view returns(bool){\n    bool checked = false;\n    address temp = _child;\n\n    for(uint i = 0; i < IDC[_child].depth+1; i++){\n      if(temp == _parent){\n        checked = true;\n        break;\n      }else{\n        temp = IDC[temp].vidP;\n      }\n    }\n\n    return checked;\n  }\n\n  function childrenRevocation(address _revokedAddress) private{\n\n    for(uint i = 0; i < IDC[_revokedAddress].vidC.length; i++){\n      childrenRevocation(IDC[_revokedAddress].vidC[i]);\n    }\n    delete Icap[_revokedAddress];\n    delete IDC[_revokedAddress];\n  }\n\n}\n",
  "sourcePath": "/Users/yuta-nak/Library/Mobile Documents/com~apple~CloudDocs/Research/dev/BlendCAC_oneContract/contracts/Tokens.sol",
  "compiler": {
    "name": "solc",
    "version": "0.5.0+commit.1d4f565a.Emscripten.clang"
  },
  "schemaVersion": "3.0.2",
  "updatedAt": "2019-08-09T07:54:31.417Z",
  "devdoc": {
    "methods": {}
  },
  "userdoc": {
    "methods": {}
  }
}