{
  "contractName": "ObjectCaps",
  "abi": [
    {
      "inputs": [],
      "payable": false,
      "stateMutability": "nonpayable",
      "type": "constructor",
      "signature": "constructor"
    },
    {
      "anonymous": false,
      "inputs": [
        {
          "indexed": false,
          "name": "from",
          "type": "address"
        },
        {
          "indexed": false,
          "name": "action",
          "type": "string"
        },
        {
          "indexed": false,
          "name": "permission",
          "type": "bool"
        }
      ],
      "name": "AccessRequest",
      "type": "event",
      "signature": "0x5cf708c60ca8732e826008dfe94baf442473f2af405faded1345a344507f7b1c"
    },
    {
      "constant": false,
      "inputs": [
        {
          "name": "_action",
          "type": "string"
        },
        {
          "name": "_maxDepth",
          "type": "uint256"
        }
      ],
      "name": "createAction",
      "outputs": [],
      "payable": false,
      "stateMutability": "nonpayable",
      "type": "function",
      "signature": "0x60ce3260"
    },
    {
      "constant": false,
      "inputs": [
        {
          "name": "delegatee",
          "type": "address"
        },
        {
          "name": "_action",
          "type": "string"
        },
        {
          "name": "_delegationRight",
          "type": "bool"
        },
        {
          "name": "_revocationRight",
          "type": "bool"
        }
      ],
      "name": "delegation",
      "outputs": [],
      "payable": false,
      "stateMutability": "nonpayable",
      "type": "function",
      "signature": "0x7e320878"
    },
    {
      "constant": false,
      "inputs": [
        {
          "name": "_revocatedAddress",
          "type": "address"
        },
        {
          "name": "_action",
          "type": "string"
        }
      ],
      "name": "singleRevocation",
      "outputs": [],
      "payable": false,
      "stateMutability": "nonpayable",
      "type": "function",
      "signature": "0x9ce9c3d3"
    },
    {
      "constant": false,
      "inputs": [
        {
          "name": "_revocatedAddress",
          "type": "address"
        },
        {
          "name": "_action",
          "type": "string"
        }
      ],
      "name": "allChildrenRevocation",
      "outputs": [],
      "payable": false,
      "stateMutability": "nonpayable",
      "type": "function",
      "signature": "0xc4a8a3b2"
    },
    {
      "constant": true,
      "inputs": [
        {
          "name": "_target",
          "type": "address"
        },
        {
          "name": "_action",
          "type": "string"
        }
      ],
      "name": "getCap",
      "outputs": [
        {
          "name": "",
          "type": "bool"
        },
        {
          "name": "",
          "type": "bool"
        },
        {
          "name": "",
          "type": "bool"
        },
        {
          "name": "",
          "type": "uint256"
        },
        {
          "name": "",
          "type": "uint256"
        },
        {
          "name": "",
          "type": "address"
        },
        {
          "name": "",
          "type": "address[]"
        }
      ],
      "payable": false,
      "stateMutability": "view",
      "type": "function",
      "signature": "0x14277adb"
    },
    {
      "constant": false,
      "inputs": [
        {
          "name": "_action",
          "type": "string"
        }
      ],
      "name": "accessRequest",
      "outputs": [],
      "payable": false,
      "stateMutability": "nonpayable",
      "type": "function",
      "signature": "0x250654e3"
    }
  ],
  "bytecode": "0x608060405234801561001057600080fd5b50336000806101000a81548173ffffffffffffffffffffffffffffffffffffffff021916908373ffffffffffffffffffffffffffffffffffffffff160217905550613bfc806100606000396000f3fe608060405260043610610078576000357c0100000000000000000000000000000000000000000000000000000000900463ffffffff16806314277adb1461007d578063250654e31461021c57806360ce3260146102e45780637e320878146103b65780639ce9c3d3146104b6578063c4a8a3b21461059e575b600080fd5b34801561008957600080fd5b50610163600480360360408110156100a057600080fd5b81019080803573ffffffffffffffffffffffffffffffffffffffff169060200190929190803590602001906401000000008111156100dd57600080fd5b8201836020820111156100ef57600080fd5b8035906020019184600183028401116401000000008311171561011157600080fd5b91908080601f016020809104026020016040519081016040528093929190818152602001838380828437600081840152601f19601f820116905080830192505050505050509192919290505050610686565b604051808815151515815260200187151515158152602001861515151581526020018581526020018481526020018373ffffffffffffffffffffffffffffffffffffffff1673ffffffffffffffffffffffffffffffffffffffff16815260200180602001828103825283818151815260200191508051906020019060200280838360005b838110156102025780820151818401526020810190506101e7565b505050509050019850505050505050505060405180910390f35b34801561022857600080fd5b506102e26004803603602081101561023f57600080fd5b810190808035906020019064010000000081111561025c57600080fd5b82018360208201111561026e57600080fd5b8035906020019184600183028401116401000000008311171561029057600080fd5b91908080601f016020809104026020016040519081016040528093929190818152602001838380828437600081840152601f19601f8201169050808301925050505050505091929192905050506108d9565b005b3480156102f057600080fd5b506103b46004803603604081101561030757600080fd5b810190808035906020019064010000000081111561032457600080fd5b82018360208201111561033657600080fd5b8035906020019184600183028401116401000000008311171561035857600080fd5b91908080601f016020809104026020016040519081016040528093929190818152602001838380828437600081840152601f19601f82011690508083019250505050505050919291929080359060200190929190505050610a70565b005b3480156103c257600080fd5b506104b4600480360360808110156103d957600080fd5b81019080803573ffffffffffffffffffffffffffffffffffffffff1690602001909291908035906020019064010000000081111561041657600080fd5b82018360208201111561042857600080fd5b8035906020019184600183028401116401000000008311171561044a57600080fd5b91908080601f016020809104026020016040519081016040528093929190818152602001838380828437600081840152601f19601f820116905080830192505050505050509192919290803515159060200190929190803515159060200190929190505050611144565b005b3480156104c257600080fd5b5061059c600480360360408110156104d957600080fd5b81019080803573ffffffffffffffffffffffffffffffffffffffff1690602001909291908035906020019064010000000081111561051657600080fd5b82018360208201111561052857600080fd5b8035906020019184600183028401116401000000008311171561054a57600080fd5b91908080601f016020809104026020016040519081016040528093929190818152602001838380828437600081840152601f19601f820116905080830192505050505050509192919290505050611c88565b005b3480156105aa57600080fd5b50610684600480360360408110156105c157600080fd5b81019080803573ffffffffffffffffffffffffffffffffffffffff169060200190929190803590602001906401000000008111156105fe57600080fd5b82018360208201111561061057600080fd5b8035906020019184600183028401116401000000008311171561063257600080fd5b91908080601f016020809104026020016040519081016040528093929190818152602001838380828437600081840152601f19601f820116905080830192505050505050509192919290505050612b38565b005b6000806000806000806060610699613ab0565b600260008b73ffffffffffffffffffffffffffffffffffffffff1673ffffffffffffffffffffffffffffffffffffffff168152602001908152602001600020896040518082805190602001908083835b60208310151561070e57805182526020820191506020810190506020830392506106e9565b6001836020036101000a038019825116818451168082178552505050505050905001915050908152602001604051809103902060e060405190810160405290816000820160009054906101000a900460ff161515151581526020016000820160019054906101000a900460ff161515151581526020016000820160029054906101000a900460ff1615151515815260200160018201548152602001600282015481526020016003820160009054906101000a900473ffffffffffffffffffffffffffffffffffffffff1673ffffffffffffffffffffffffffffffffffffffff1673ffffffffffffffffffffffffffffffffffffffff1681526020016004820180548060200260200160405190810160405280929190818152602001828054801561088d57602002820191906000526020600020905b8160009054906101000a900473ffffffffffffffffffffffffffffffffffffffff1673ffffffffffffffffffffffffffffffffffffffff1681526020019060010190808311610843575b5050505050815250509050806000015181602001518260400151836060015184608001518560a001518660c0015180905097509750975097509750975097505092959891949750929550565b7f5cf708c60ca8732e826008dfe94baf442473f2af405faded1345a344507f7b1c3382600260003373ffffffffffffffffffffffffffffffffffffffff1673ffffffffffffffffffffffffffffffffffffffff168152602001908152602001600020846040518082805190602001908083835b602083101515610971578051825260208201915060208101905060208303925061094c565b6001836020036101000a038019825116818451168082178552505050505050905001915050908152602001604051809103902060000160009054906101000a900460ff16604051808473ffffffffffffffffffffffffffffffffffffffff1673ffffffffffffffffffffffffffffffffffffffff1681526020018060200183151515158152602001828103825284818151815260200191508051906020019080838360005b83811015610a31578082015181840152602081019050610a16565b50505050905090810190601f168015610a5e5780820380516001836020036101000a031916815260200191505b5094505050505060405180910390a150565b6000809054906101000a900473ffffffffffffffffffffffffffffffffffffffff1673ffffffffffffffffffffffffffffffffffffffff163373ffffffffffffffffffffffffffffffffffffffff16141515610b5a576040517f08c379a00000000000000000000000000000000000000000000000000000000081526004018080602001828103825260378152602001807f27637265617465416374696f6e27207761732063616c6c65642062792061206181526020017f63636f756e742077686f206973206e6f74206f776e657200000000000000000081525060400191505060405180910390fd5b60001515600260008060009054906101000a900473ffffffffffffffffffffffffffffffffffffffff1673ffffffffffffffffffffffffffffffffffffffff1673ffffffffffffffffffffffffffffffffffffffff168152602001908152602001600020836040518082805190602001908083835b602083101515610bf45780518252602082019150602081019050602083039250610bcf565b6001836020036101000a038019825116818451168082178552505050505050905001915050908152602001604051809103902060000160009054906101000a900460ff161515141515610caf576040517f08c379a000000000000000000000000000000000000000000000000000000000815260040180806020018281038252601a8152602001807f616374696f6e5f6e616d6520616c72656164792065786973747300000000000081525060200191505060405180910390fd5b6001600260008060009054906101000a900473ffffffffffffffffffffffffffffffffffffffff1673ffffffffffffffffffffffffffffffffffffffff1673ffffffffffffffffffffffffffffffffffffffff168152602001908152602001600020836040518082805190602001908083835b602083101515610d475780518252602082019150602081019050602083039250610d22565b6001836020036101000a038019825116818451168082178552505050505050905001915050908152602001604051809103902060000160006101000a81548160ff0219169083151502179055506001600260008060009054906101000a900473ffffffffffffffffffffffffffffffffffffffff1673ffffffffffffffffffffffffffffffffffffffff1673ffffffffffffffffffffffffffffffffffffffff168152602001908152602001600020836040518082805190602001908083835b602083101515610e2c5780518252602082019150602081019050602083039250610e07565b6001836020036101000a038019825116818451168082178552505050505050905001915050908152602001604051809103902060000160016101000a81548160ff0219169083151502179055506001600260008060009054906101000a900473ffffffffffffffffffffffffffffffffffffffff1673ffffffffffffffffffffffffffffffffffffffff1673ffffffffffffffffffffffffffffffffffffffff168152602001908152602001600020836040518082805190602001908083835b602083101515610f115780518252602082019150602081019050602083039250610eec565b6001836020036101000a038019825116818451168082178552505050505050905001915050908152602001604051809103902060000160026101000a81548160ff0219169083151502179055506000600260008060009054906101000a900473ffffffffffffffffffffffffffffffffffffffff1673ffffffffffffffffffffffffffffffffffffffff1673ffffffffffffffffffffffffffffffffffffffff168152602001908152602001600020836040518082805190602001908083835b602083101515610ff65780518252602082019150602081019050602083039250610fd1565b6001836020036101000a03801982511681845116808217855250505050505090500191505090815260200160405180910390206001018190555080600260008060009054906101000a900473ffffffffffffffffffffffffffffffffffffffff1673ffffffffffffffffffffffffffffffffffffffff1673ffffffffffffffffffffffffffffffffffffffff168152602001908152602001600020836040518082805190602001908083835b6020831015156110c757805182526020820191506020810190506020830392506110a2565b6001836020036101000a038019825116818451168082178552505050505050905001915050908152602001604051809103902060020181905550600182908060018154018082558091505090600182039060005260206000200160009091929091909150908051906020019061113e929190613b0a565b50505050565b60001515600260008673ffffffffffffffffffffffffffffffffffffffff1673ffffffffffffffffffffffffffffffffffffffff168152602001908152602001600020846040518082805190602001908083835b6020831015156111bd5780518252602082019150602081019050602083039250611198565b6001836020036101000a038019825116818451168082178552505050505050905001915050908152602001604051809103902060000160009054906101000a900460ff16151514151561129e576040517f08c379a00000000000000000000000000000000000000000000000000000000081526004018080602001828103825260288152602001807f64656c65676174656520616c726561647920686176652074686973206163746981526020017f6f6e20726967687400000000000000000000000000000000000000000000000081525060400191505060405180910390fd5b60011515600260003373ffffffffffffffffffffffffffffffffffffffff1673ffffffffffffffffffffffffffffffffffffffff168152602001908152602001600020846040518082805190602001908083835b60208310151561131757805182526020820191506020810190506020830392506112f2565b6001836020036101000a038019825116818451168082178552505050505050905001915050908152602001604051809103902060000160019054906101000a900460ff16151514151561141e576040517f08c379a00000000000000000000000000000000000000000000000000000000081526004018080602001828103825260448152602001807f2764656c65676174696f6e27207761732063616c6c656420627920612061636381526020017f6f756e742077686f20646f6e277420686176652064656c65676174696f6e526981526020017f676874200000000000000000000000000000000000000000000000000000000081525060600191505060405180910390fd5b6001151581151514156115865760011515600260003373ffffffffffffffffffffffffffffffffffffffff1673ffffffffffffffffffffffffffffffffffffffff168152602001908152602001600020846040518082805190602001908083835b6020831015156114a4578051825260208201915060208101905060208303925061147f565b6001836020036101000a038019825116818451168082178552505050505050905001915050908152602001604051809103902060000160029054906101000a900460ff161515141515611585576040517f08c379a000000000000000000000000000000000000000000000000000000000815260040180806020018281038252602f8152602001807f546865206d6573736167652073656e64657220646f65736e277420686176652081526020017f7265766f636174696f6e5269676874000000000000000000000000000000000081525060400191505060405180910390fd5b5b6001600260008673ffffffffffffffffffffffffffffffffffffffff1673ffffffffffffffffffffffffffffffffffffffff168152602001908152602001600020846040518082805190602001908083835b6020831015156115fd57805182526020820191506020810190506020830392506115d8565b6001836020036101000a038019825116818451168082178552505050505050905001915050908152602001604051809103902060000160006101000a81548160ff02191690831515021790555081600260008673ffffffffffffffffffffffffffffffffffffffff1673ffffffffffffffffffffffffffffffffffffffff168152602001908152602001600020846040518082805190602001908083835b6020831015156116c0578051825260208201915060208101905060208303925061169b565b6001836020036101000a038019825116818451168082178552505050505050905001915050908152602001604051809103902060000160016101000a81548160ff02191690831515021790555080600260008673ffffffffffffffffffffffffffffffffffffffff1673ffffffffffffffffffffffffffffffffffffffff168152602001908152602001600020846040518082805190602001908083835b602083101515611783578051825260208201915060208101905060208303925061175e565b6001836020036101000a038019825116818451168082178552505050505050905001915050908152602001604051809103902060000160026101000a81548160ff0219169083151502179055506001600260003373ffffffffffffffffffffffffffffffffffffffff1673ffffffffffffffffffffffffffffffffffffffff168152602001908152602001600020846040518082805190602001908083835b6020831015156118475780518252602082019150602081019050602083039250611822565b6001836020036101000a03801982511681845116808217855250505050505090500191505090815260200160405180910390206001015401600260008673ffffffffffffffffffffffffffffffffffffffff1673ffffffffffffffffffffffffffffffffffffffff168152602001908152602001600020846040518082805190602001908083835b6020831015156118f457805182526020820191506020810190506020830392506118cf565b6001836020036101000a038019825116818451168082178552505050505050905001915050908152602001604051809103902060010181905550600260003373ffffffffffffffffffffffffffffffffffffffff1673ffffffffffffffffffffffffffffffffffffffff168152602001908152602001600020836040518082805190602001908083835b6020831015156119a3578051825260208201915060208101905060208303925061197e565b6001836020036101000a038019825116818451168082178552505050505050905001915050908152602001604051809103902060020154600260008673ffffffffffffffffffffffffffffffffffffffff1673ffffffffffffffffffffffffffffffffffffffff168152602001908152602001600020846040518082805190602001908083835b602083101515611a4f5780518252602082019150602081019050602083039250611a2a565b6001836020036101000a03801982511681845116808217855250505050505090500191505090815260200160405180910390206002018190555033600260008673ffffffffffffffffffffffffffffffffffffffff1673ffffffffffffffffffffffffffffffffffffffff168152602001908152602001600020846040518082805190602001908083835b602083101515611aff5780518252602082019150602081019050602083039250611ada565b6001836020036101000a038019825116818451168082178552505050505050905001915050908152602001604051809103902060030160006101000a81548173ffffffffffffffffffffffffffffffffffffffff021916908373ffffffffffffffffffffffffffffffffffffffff160217905550600260003373ffffffffffffffffffffffffffffffffffffffff1673ffffffffffffffffffffffffffffffffffffffff168152602001908152602001600020836040518082805190602001908083835b602083101515611be85780518252602082019150602081019050602083039250611bc3565b6001836020036101000a03801982511681845116808217855250505050505090500191505090815260200160405180910390206004018490806001815401808255809150509060018203906000526020600020016000909192909190916101000a81548173ffffffffffffffffffffffffffffffffffffffff021916908373ffffffffffffffffffffffffffffffffffffffff1602179055505050505050565b60011515600260003373ffffffffffffffffffffffffffffffffffffffff1673ffffffffffffffffffffffffffffffffffffffff168152602001908152602001600020826040518082805190602001908083835b602083101515611d015780518252602082019150602081019050602083039250611cdc565b6001836020036101000a038019825116818451168082178552505050505050905001915050908152602001604051809103902060000160029054906101000a900460ff161515141515611e08576040517f08c379a00000000000000000000000000000000000000000000000000000000081526004018080602001828103825260498152602001807f2773696e676c655265766f636174696f6e27207761732063616c6c656420627981526020017f2061206163636f756e742077686f20646f6e27742068617665207265766f636181526020017f74696f6e5269676874000000000000000000000000000000000000000000000081525060600191505060405180910390fd5b60011515611e173384846132c3565b1515141515611eb4576040517f08c379a000000000000000000000000000000000000000000000000000000000815260040180806020018281038252603c8152602001807f2773696e676c655265766f636174696f6e27207761732063616c6c656420627981526020017f2061206163636f756e742077686f206973206e6f7420706172656e740000000081525060400191505060405180910390fd5b60008090505b600260008473ffffffffffffffffffffffffffffffffffffffff1673ffffffffffffffffffffffffffffffffffffffff168152602001908152602001600020826040518082805190602001908083835b602083101515611f2f5780518252602082019150602081019050602083039250611f0a565b6001836020036101000a0380198251168184511680821785525050505050509050019150509081526020016040518091039020600401805490508110156124d05760026000600260008673ffffffffffffffffffffffffffffffffffffffff1673ffffffffffffffffffffffffffffffffffffffff168152602001908152602001600020846040518082805190602001908083835b602083101515611fe95780518252602082019150602081019050602083039250611fc4565b6001836020036101000a038019825116818451168082178552505050505050905001915050908152602001604051809103902060030160009054906101000a900473ffffffffffffffffffffffffffffffffffffffff1673ffffffffffffffffffffffffffffffffffffffff1673ffffffffffffffffffffffffffffffffffffffff168152602001908152602001600020826040518082805190602001908083835b6020831015156120b0578051825260208201915060208101905060208303925061208b565b6001836020036101000a0380198251168184511680821785525050505050509050019150509081526020016040518091039020600401600260008573ffffffffffffffffffffffffffffffffffffffff1673ffffffffffffffffffffffffffffffffffffffff168152602001908152602001600020836040518082805190602001908083835b60208310151561215b5780518252602082019150602081019050602083039250612136565b6001836020036101000a03801982511681845116808217855250505050505090500191505090815260200160405180910390206004018281548110151561219e57fe5b9060005260206000200160009054906101000a900473ffffffffffffffffffffffffffffffffffffffff1690806001815401808255809150509060018203906000526020600020016000909192909190916101000a81548173ffffffffffffffffffffffffffffffffffffffff021916908373ffffffffffffffffffffffffffffffffffffffff16021790555050600260008473ffffffffffffffffffffffffffffffffffffffff1673ffffffffffffffffffffffffffffffffffffffff168152602001908152602001600020826040518082805190602001908083835b6020831015156122a1578051825260208201915060208101905060208303925061227c565b6001836020036101000a038019825116818451168082178552505050505050905001915050908152602001604051809103902060030160009054906101000a900473ffffffffffffffffffffffffffffffffffffffff1660026000600260008773ffffffffffffffffffffffffffffffffffffffff1673ffffffffffffffffffffffffffffffffffffffff168152602001908152602001600020856040518082805190602001908083835b602083101515612371578051825260208201915060208101905060208303925061234c565b6001836020036101000a0380198251168184511680821785525050505050509050019150509081526020016040518091039020600401848154811015156123b457fe5b9060005260206000200160009054906101000a900473ffffffffffffffffffffffffffffffffffffffff1673ffffffffffffffffffffffffffffffffffffffff1673ffffffffffffffffffffffffffffffffffffffff168152602001908152602001600020836040518082805190602001908083835b60208310151561244f578051825260208201915060208101905060208303925061242a565b6001836020036101000a038019825116818451168082178552505050505050905001915050908152602001604051809103902060030160006101000a81548173ffffffffffffffffffffffffffffffffffffffff021916908373ffffffffffffffffffffffffffffffffffffffff1602179055508080600101915050611eba565b5060008090505b60026000600260008673ffffffffffffffffffffffffffffffffffffffff1673ffffffffffffffffffffffffffffffffffffffff168152602001908152602001600020846040518082805190602001908083835b602083101515612550578051825260208201915060208101905060208303925061252b565b6001836020036101000a038019825116818451168082178552505050505050905001915050908152602001604051809103902060030160009054906101000a900473ffffffffffffffffffffffffffffffffffffffff1673ffffffffffffffffffffffffffffffffffffffff1673ffffffffffffffffffffffffffffffffffffffff168152602001908152602001600020826040518082805190602001908083835b60208310151561261757805182526020820191506020810190506020830392506125f2565b6001836020036101000a0380198251168184511680821785525050505050509050019150509081526020016040518091039020600401805490508110156129fb578273ffffffffffffffffffffffffffffffffffffffff1660026000600260008773ffffffffffffffffffffffffffffffffffffffff1673ffffffffffffffffffffffffffffffffffffffff168152602001908152602001600020856040518082805190602001908083835b6020831015156126e857805182526020820191506020810190506020830392506126c3565b6001836020036101000a038019825116818451168082178552505050505050905001915050908152602001604051809103902060030160009054906101000a900473ffffffffffffffffffffffffffffffffffffffff1673ffffffffffffffffffffffffffffffffffffffff1673ffffffffffffffffffffffffffffffffffffffff168152602001908152602001600020836040518082805190602001908083835b6020831015156127af578051825260208201915060208101905060208303925061278a565b6001836020036101000a0380198251168184511680821785525050505050509050019150509081526020016040518091039020600401828154811015156127f257fe5b9060005260206000200160009054906101000a900473ffffffffffffffffffffffffffffffffffffffff1673ffffffffffffffffffffffffffffffffffffffff1614156129ee5760026000600260008673ffffffffffffffffffffffffffffffffffffffff1673ffffffffffffffffffffffffffffffffffffffff168152602001908152602001600020846040518082805190602001908083835b6020831015156128b2578051825260208201915060208101905060208303925061288d565b6001836020036101000a038019825116818451168082178552505050505050905001915050908152602001604051809103902060030160009054906101000a900473ffffffffffffffffffffffffffffffffffffffff1673ffffffffffffffffffffffffffffffffffffffff1673ffffffffffffffffffffffffffffffffffffffff168152602001908152602001600020826040518082805190602001908083835b6020831015156129795780518252602082019150602081019050602083039250612954565b6001836020036101000a0380198251168184511680821785525050505050509050019150509081526020016040518091039020600401818154811015156129bc57fe5b9060005260206000200160006101000a81549073ffffffffffffffffffffffffffffffffffffffff02191690556129fb565b80806001019150506124d7565b50612a0682826134b0565b600260008373ffffffffffffffffffffffffffffffffffffffff1673ffffffffffffffffffffffffffffffffffffffff168152602001908152602001600020816040518082805190602001908083835b602083101515612a7b5780518252602082019150602081019050602083039250612a56565b6001836020036101000a0380198251168184511680821785525050505050509050019150509081526020016040518091039020600080820160006101000a81549060ff02191690556000820160016101000a81549060ff02191690556000820160026101000a81549060ff0219169055600182016000905560028201600090556003820160006101000a81549073ffffffffffffffffffffffffffffffffffffffff0219169055600482016000612b329190613b8a565b50505050565b60011515600260003373ffffffffffffffffffffffffffffffffffffffff1673ffffffffffffffffffffffffffffffffffffffff168152602001908152602001600020826040518082805190602001908083835b602083101515612bb15780518252602082019150602081019050602083039250612b8c565b6001836020036101000a038019825116818451168082178552505050505050905001915050908152602001604051809103902060000160029054906101000a900460ff161515141515612cb8576040517f08c379a000000000000000000000000000000000000000000000000000000000815260040180806020018281038252604e8152602001807f27616c6c4368696c6472656e5265766f636174696f6e27207761732063616c6c81526020017f65642062792061206163636f756e742077686f20646f6e27742068617665207281526020017f65766f636174696f6e526967687400000000000000000000000000000000000081525060600191505060405180910390fd5b60011515612cc73384846132c3565b1515141515612d8a576040517f08c379a00000000000000000000000000000000000000000000000000000000081526004018080602001828103825260418152602001807f27616c6c4368696c6472656e5265766f636174696f6e27207761732063616c6c81526020017f65642062792061206163636f756e742077686f206973206e6f7420706172656e81526020017f740000000000000000000000000000000000000000000000000000000000000081525060600191505060405180910390fd5b60008090505b60026000600260008673ffffffffffffffffffffffffffffffffffffffff1673ffffffffffffffffffffffffffffffffffffffff168152602001908152602001600020846040518082805190602001908083835b602083101515612e095780518252602082019150602081019050602083039250612de4565b6001836020036101000a038019825116818451168082178552505050505050905001915050908152602001604051809103902060030160009054906101000a900473ffffffffffffffffffffffffffffffffffffffff1673ffffffffffffffffffffffffffffffffffffffff1673ffffffffffffffffffffffffffffffffffffffff168152602001908152602001600020826040518082805190602001908083835b602083101515612ed05780518252602082019150602081019050602083039250612eab565b6001836020036101000a0380198251168184511680821785525050505050509050019150509081526020016040518091039020600401805490508110156132b4578273ffffffffffffffffffffffffffffffffffffffff1660026000600260008773ffffffffffffffffffffffffffffffffffffffff1673ffffffffffffffffffffffffffffffffffffffff168152602001908152602001600020856040518082805190602001908083835b602083101515612fa15780518252602082019150602081019050602083039250612f7c565b6001836020036101000a038019825116818451168082178552505050505050905001915050908152602001604051809103902060030160009054906101000a900473ffffffffffffffffffffffffffffffffffffffff1673ffffffffffffffffffffffffffffffffffffffff1673ffffffffffffffffffffffffffffffffffffffff168152602001908152602001600020836040518082805190602001908083835b6020831015156130685780518252602082019150602081019050602083039250613043565b6001836020036101000a0380198251168184511680821785525050505050509050019150509081526020016040518091039020600401828154811015156130ab57fe5b9060005260206000200160009054906101000a900473ffffffffffffffffffffffffffffffffffffffff1673ffffffffffffffffffffffffffffffffffffffff1614156132a75760026000600260008673ffffffffffffffffffffffffffffffffffffffff1673ffffffffffffffffffffffffffffffffffffffff168152602001908152602001600020846040518082805190602001908083835b60208310151561316b5780518252602082019150602081019050602083039250613146565b6001836020036101000a038019825116818451168082178552505050505050905001915050908152602001604051809103902060030160009054906101000a900473ffffffffffffffffffffffffffffffffffffffff1673ffffffffffffffffffffffffffffffffffffffff1673ffffffffffffffffffffffffffffffffffffffff168152602001908152602001600020826040518082805190602001908083835b602083101515613232578051825260208201915060208101905060208303925061320d565b6001836020036101000a03801982511681845116808217855250505050505090500191505090815260200160405180910390206004018181548110151561327557fe5b9060005260206000200160006101000a81549073ffffffffffffffffffffffffffffffffffffffff02191690556132b4565b8080600101915050612d90565b506132bf82826137c8565b5050565b60008060009050600084905060008090505b6001600260008873ffffffffffffffffffffffffffffffffffffffff1673ffffffffffffffffffffffffffffffffffffffff168152602001908152602001600020866040518082805190602001908083835b60208310151561334c5780518252602082019150602081019050602083039250613327565b6001836020036101000a038019825116818451168082178552505050505050905001915050908152602001604051809103902060010154018110156134a3578673ffffffffffffffffffffffffffffffffffffffff168273ffffffffffffffffffffffffffffffffffffffff1614156133c857600192506134a3565b600260008373ffffffffffffffffffffffffffffffffffffffff1673ffffffffffffffffffffffffffffffffffffffff168152602001908152602001600020856040518082805190602001908083835b60208310151561343d5780518252602082019150602081019050602083039250613418565b6001836020036101000a038019825116818451168082178552505050505050905001915050908152602001604051809103902060030160009054906101000a900473ffffffffffffffffffffffffffffffffffffffff16915080806001019150506132d5565b5081925050509392505050565b60008090505b600260008473ffffffffffffffffffffffffffffffffffffffff1673ffffffffffffffffffffffffffffffffffffffff168152602001908152602001600020826040518082805190602001908083835b60208310151561352b5780518252602082019150602081019050602083039250613506565b6001836020036101000a03801982511681845116808217855250505050505090500191505090815260200160405180910390206004018054905081101561366557613658600260008573ffffffffffffffffffffffffffffffffffffffff1673ffffffffffffffffffffffffffffffffffffffff168152602001908152602001600020836040518082805190602001908083835b6020831015156135e457805182526020820191506020810190506020830392506135bf565b6001836020036101000a03801982511681845116808217855250505050505090500191505090815260200160405180910390206004018281548110151561362757fe5b9060005260206000200160009054906101000a900473ffffffffffffffffffffffffffffffffffffffff16836134b0565b80806001019150506134b6565b506001600260008473ffffffffffffffffffffffffffffffffffffffff1673ffffffffffffffffffffffffffffffffffffffff168152602001908152602001600020826040518082805190602001908083835b6020831015156136dd57805182526020820191506020810190506020830392506136b8565b6001836020036101000a03801982511681845116808217855250505050505090500191505090815260200160405180910390206001015403600260008473ffffffffffffffffffffffffffffffffffffffff1673ffffffffffffffffffffffffffffffffffffffff168152602001908152602001600020826040518082805190602001908083835b60208310151561378a5780518252602082019150602081019050602083039250613765565b6001836020036101000a0380198251168184511680821785525050505050509050019150509081526020016040518091039020600101819055505050565b60008090505b600260008473ffffffffffffffffffffffffffffffffffffffff1673ffffffffffffffffffffffffffffffffffffffff168152602001908152602001600020826040518082805190602001908083835b602083101515613843578051825260208201915060208101905060208303925061381e565b6001836020036101000a03801982511681845116808217855250505050505090500191505090815260200160405180910390206004018054905081101561397d57613970600260008573ffffffffffffffffffffffffffffffffffffffff1673ffffffffffffffffffffffffffffffffffffffff168152602001908152602001600020836040518082805190602001908083835b6020831015156138fc57805182526020820191506020810190506020830392506138d7565b6001836020036101000a03801982511681845116808217855250505050505090500191505090815260200160405180910390206004018281548110151561393f57fe5b9060005260206000200160009054906101000a900473ffffffffffffffffffffffffffffffffffffffff16836137c8565b80806001019150506137ce565b50600260008373ffffffffffffffffffffffffffffffffffffffff1673ffffffffffffffffffffffffffffffffffffffff168152602001908152602001600020816040518082805190602001908083835b6020831015156139f357805182526020820191506020810190506020830392506139ce565b6001836020036101000a0380198251168184511680821785525050505050509050019150509081526020016040518091039020600080820160006101000a81549060ff02191690556000820160016101000a81549060ff02191690556000820160026101000a81549060ff0219169055600182016000905560028201600090556003820160006101000a81549073ffffffffffffffffffffffffffffffffffffffff0219169055600482016000613aaa9190613b8a565b50505050565b60e0604051908101604052806000151581526020016000151581526020016000151581526020016000815260200160008152602001600073ffffffffffffffffffffffffffffffffffffffff168152602001606081525090565b828054600181600116156101000203166002900490600052602060002090601f016020900481019282601f10613b4b57805160ff1916838001178555613b79565b82800160010185558215613b79579182015b82811115613b78578251825591602001919060010190613b5d565b5b509050613b869190613bab565b5090565b5080546000825590600052602060002090810190613ba89190613bab565b50565b613bcd91905b80821115613bc9576000816000905550600101613bb1565b5090565b9056fea165627a7a723058207c8ec8b7108046b41a4941ff7a85ed02df1d3596cf5e9a2497c8d45e6aaadcd20029",
  "source": "pragma solidity ^0.5.0;\n\ncontract ObjectCaps {\n\n  // global variables\n  address owner;\n  string[] actions;\n\n  // sturcts\n  struct Cap{\n    bool right;\n    bool delegationRight;\n    bool revocationRight;\n    uint depth;\n    uint maxDepth;\n    address parent;\n    address[] children;\n  }\n\n  // mappings\n  mapping(address => mapping(string => Cap)) Caps; //Caps[address][\"write\"].delegation == \"true\"\n\n  //events\n  event AccessRequest(address from, string action, bool permission);\n\n  //functions\n  constructor() public{\n    owner = msg.sender;\n  }\n\n  function createAction(string memory _action, uint _maxDepth) public{\n    require(\n      msg.sender == owner,\n      \"'createAction' was called by a account who is not owner\"\n    );\n    require(\n      Caps[owner][_action].right == false,\n      \"action_name already exists\"\n    );\n    Caps[owner][_action].right = true;\n    Caps[owner][_action].delegationRight = true;\n    Caps[owner][_action].revocationRight = true;\n    Caps[owner][_action].depth = 0;\n    Caps[owner][_action].maxDepth = _maxDepth;\n    actions.push(_action);\n  }\n\n  function delegation(address delegatee, string memory _action, bool _delegationRight, bool _revocationRight) public{\n    require(\n      Caps[delegatee][_action].right == false,\n      \"delegatee already have this action right\"\n    );\n    require(\n      Caps[msg.sender][_action].delegationRight == true,\n      \"'delegation' was called by a account who don't have delegationRight \"\n    );\n    if(_revocationRight == true){\n      require(\n        Caps[msg.sender][_action].revocationRight == true,\n        \"The message sender doesn't have revocationRight\"\n      );\n    }\n\n    Caps[delegatee][_action].right = true;\n    Caps[delegatee][_action].delegationRight = _delegationRight;\n    Caps[delegatee][_action].revocationRight = _revocationRight;\n    Caps[delegatee][_action].depth = Caps[msg.sender][_action].depth + 1;\n    Caps[delegatee][_action].maxDepth = Caps[msg.sender][_action].maxDepth;\n    Caps[delegatee][_action].parent = msg.sender;\n\n    Caps[msg.sender][_action].children.push(delegatee);\n  }\n\n\n  function singleRevocation(address _revocatedAddress, string memory _action) public{\n    require(\n      Caps[msg.sender][_action].revocationRight == true,\n      \"'singleRevocation' was called by a account who don't have revocationRight\"\n    );\n    require(\n      checkParent(msg.sender, _revocatedAddress, _action) == true,\n      \"'singleRevocation' was called by a account who is not parent\"\n    ); //\n\n    //\n    // address[] memory tempChildren = Caps[_revocatedAddress][_action].children; //children\n    // address tempParent = Caps[_revocatedAddress][_action].parent; //parent\n    for(uint i = 0; i < Caps[_revocatedAddress][_action].children.length; i++){\n      Caps[Caps[_revocatedAddress][_action].parent][_action].children.push(Caps[_revocatedAddress][_action].children[i]); //parentchild\n      Caps[Caps[_revocatedAddress][_action].children[i]][_action].parent = Caps[_revocatedAddress][_action].parent; //childparent\n    }\n\n    // children\n    for(uint j = 0; j < Caps[Caps[_revocatedAddress][_action].parent][_action].children.length; j++){\n      if(Caps[Caps[_revocatedAddress][_action].parent][_action].children[j] == _revocatedAddress){\n        delete Caps[Caps[_revocatedAddress][_action].parent][_action].children[j];\n        break;\n      }\n    }\n\n    decrementDepth(_revocatedAddress, _action); //depth\n\n    delete Caps[_revocatedAddress][_action]; // \n  }\n\n  function decrementDepth(address _target, string memory _action) private {\n    // address[] memory tempChildren = Caps[_target][_action].children; //decrementchildren\n    for(uint i = 0; i < Caps[_target][_action].children.length; i++){\n      decrementDepth(Caps[_target][_action].children[i], _action);\n    }\n    Caps[_target][_action].depth = Caps[_target][_action].depth - 1;\n  }\n\n\n  function allChildrenRevocation(address _revocatedAddress, string memory _action) public{\n    require(\n      Caps[msg.sender][_action].revocationRight == true,\n      \"'allChildrenRevocation' was called by a account who don't have revocationRight\"\n    );\n    require(\n      checkParent(msg.sender, _revocatedAddress, _action) == true,\n      \"'allChildrenRevocation' was called by a account who is not parent\"\n    ); //\n\n    // children\n    // address tempParent = Caps[_revocatedAddress][_action].parent; //parent\n    for(uint j = 0; j < Caps[Caps[_revocatedAddress][_action].parent][_action].children.length; j++){\n      if(Caps[Caps[_revocatedAddress][_action].parent][_action].children[j] == _revocatedAddress){\n        delete Caps[Caps[_revocatedAddress][_action].parent][_action].children[j];\n        break;\n      }\n    }\n\n    childrenRevocation(_revocatedAddress, _action);\n  }\n\n  function childrenRevocation(address _revocatedAddress, string memory _action) private{\n    // address[] memory temp = Caps[_revocatedAddress][_action].children;\n    for(uint i = 0; i < Caps[_revocatedAddress][_action].children.length; i++){\n      childrenRevocation(Caps[_revocatedAddress][_action].children[i], _action);\n    }\n    delete Caps[_revocatedAddress][_action];\n  }\n\n\n  function checkParent(address _parent, address _child, string memory _action) private view returns(bool){\n    bool checked = false;\n    address temp = _child;\n\n    for(uint i = 0; i < Caps[_child][_action].depth+1; i++){\n      if(temp == _parent){\n        checked = true;\n        break;\n      }else{\n        temp = Caps[temp][_action].parent;\n      }\n    }\n\n    return checked;\n  }\n\n  function getCap(address _target, string memory _action) public view returns (bool, bool, bool, uint, uint, address, address[] memory){\n    Cap memory temp = Caps[_target][_action];\n    return (temp.right, temp.delegationRight, temp.revocationRight, temp.depth, temp.maxDepth, temp.parent, temp.children);\n  }\n\n  function accessRequest(string memory _action) public{\n    // bool permission = false;\n    // if(Caps[msg.sender][_action].right == true){\n    //   permission = true;\n    // }\n    emit AccessRequest(msg.sender, _action, Caps[msg.sender][_action].right);\n  }\n}\n",
  "sourcePath": "/Users/yuta-nak/Library/Mobile Documents/com~apple~CloudDocs/Research/dev/capability/contracts/ObjectCaps.sol",
  "compiler": {
    "name": "solc",
    "version": "0.5.0+commit.1d4f565a.Emscripten.clang"
  },
  "schemaVersion": "3.0.2",
  "updatedAt": "2019-11-08T09:09:16.043Z",
  "devdoc": {
    "methods": {}
  },
  "userdoc": {
    "methods": {}
  }
}