{
  "contractName": "Tokens",
  "abi": [
    {
      "inputs": [],
      "payable": false,
      "stateMutability": "nonpayable",
      "type": "constructor"
    },
    {
      "constant": false,
      "inputs": [
        {
          "name": "_op",
          "type": "string[]"
        }
      ],
      "name": "generateIcap",
      "outputs": [],
      "payable": false,
      "stateMutability": "nonpayable",
      "type": "function"
    }
  ],
  "bytecode": "0x608060405234801561001057600080fd5b50336000806101000a81548173ffffffffffffffffffffffffffffffffffffffff021916908373ffffffffffffffffffffffffffffffffffffffff1602179055506104f2806100606000396000f3fe608060405234801561001057600080fd5b506004361061002b5760003560e01c80637bd2534e14610030575b600080fd5b61004a60048036036100459190810190610376565b61004c565b005b6000809054906101000a900473ffffffffffffffffffffffffffffffffffffffff1673ffffffffffffffffffffffffffffffffffffffff163373ffffffffffffffffffffffffffffffffffffffff16146100db576040517f08c379a00000000000000000000000000000000000000000000000000000000081526004016100d2906103f7565b60405180910390fd5b80600160003373ffffffffffffffffffffffffffffffffffffffff1673ffffffffffffffffffffffffffffffffffffffff1681526020019081526020016000206001019080519060200190610131929190610135565b5050565b828054828255906000526020600020908101928215610184579160200282015b82811115610183578251829080519060200190610173929190610195565b5091602001919060010190610155565b5b5090506101919190610215565b5090565b828054600181600116156101000203166002900490600052602060002090601f016020900481019282601f106101d657805160ff1916838001178555610204565b82800160010185558215610204579182015b828111156102035782518255916020019190600101906101e8565b5b5090506102119190610241565b5090565b61023e91905b8082111561023a57600081816102319190610266565b5060010161021b565b5090565b90565b61026391905b8082111561025f576000816000905550600101610247565b5090565b90565b50805460018160011615610100020316600290046000825580601f1061028c57506102ab565b601f0160209004906000526020600020908101906102aa9190610241565b5b50565b600082601f8301126102bf57600080fd5b81356102d26102cd82610444565b610417565b9150818183526020840193506020810190508360005b8381101561031857813586016102fe8882610322565b8452602084019350602083019250506001810190506102e8565b5050505092915050565b600082601f83011261033357600080fd5b81356103466103418261046c565b610417565b9150808252602083016020830185838301111561036257600080fd5b61036d8382846104a9565b50505092915050565b60006020828403121561038857600080fd5b600082013567ffffffffffffffff8111156103a257600080fd5b6103ae848285016102ae565b91505092915050565b60006103c4600d83610498565b91507f61616161616161616161616161000000000000000000000000000000000000006000830152602082019050919050565b60006020820190508181036000830152610410816103b7565b9050919050565b6000604051905081810181811067ffffffffffffffff8211171561043a57600080fd5b8060405250919050565b600067ffffffffffffffff82111561045b57600080fd5b602082029050602081019050919050565b600067ffffffffffffffff82111561048357600080fd5b601f19601f8301169050602081019050919050565b600082825260208201905092915050565b8281833760008383015250505056fea265627a7a72305820cecdbf1e5c15320185da63a6a2bb7c9fa68a2bcb3b220be3bdbf996b56059b1e6c6578706572696d656e74616cf50037",
  "source": "pragma solidity ^0.5.0;\npragma experimental ABIEncoderV2;\n\ncontract Tokens {\n\n  // global variables\n  address supervisor;\n\n  struct Capability{\n    bool isValid;\n    address   vidO;\n    string[]  op;\n    string[]  context;\n  }\n\n  struct DelegationTree{\n    address     vidP;\n    address[]   vidC;\n    uint        depth;\n    string[]    dar;\n  }\n\n  struct Tree{\n    uint        maxDepth;\n    mapping(address => DelegationTree)  IDC;\n  }\n\n  mapping(address => Capability)  Icap;\n  mapping(address => Tree)        IDT;\n\n  constructor() public {\n    supervisor = msg.sender;\n  }\n\n  function generateIcap(string[] memory _op) public{\n    require(\n      msg.sender == supervisor,\n      'aaaaaaaaaaaaa'\n    );\n    Icap[msg.sender].op = _op;\n  }\n\n}\n",
  "sourcePath": "/Users/yuta-nak/Library/Mobile Documents/com~apple~CloudDocs/Research/dev/capability/contracts/ObjectCaps.sol",
  "compiler": {
    "name": "solc",
    "version": "0.5.8+commit.23d335f2.Emscripten.clang"
  },
  "schemaVersion": "3.0.11",
  "updatedAt": "2019-07-15T18:03:49.658Z",
  "devdoc": {
    "methods": {}
  },
  "userdoc": {
    "methods": {}
  }
}